{
  "abi": [
    {
      "type": "constructor",
      "inputs": [
        {
          "name": "doctorAddress",
          "type": "address",
          "internalType": "address"
        }
      ],
      "stateMutability": "nonpayable"
    },
    {
      "type": "function",
      "name": "approve",
      "inputs": [
        {
          "name": "to",
          "type": "address",
          "internalType": "address"
        },
        {
          "name": "tokenId",
          "type": "uint256",
          "internalType": "uint256"
        }
      ],
      "outputs": [],
      "stateMutability": "nonpayable"
    },
    {
      "type": "function",
      "name": "balanceOf",
      "inputs": [
        {
          "name": "owner",
          "type": "address",
          "internalType": "address"
        }
      ],
      "outputs": [
        {
          "name": "",
          "type": "uint256",
          "internalType": "uint256"
        }
      ],
      "stateMutability": "view"
    },
    {
      "type": "function",
      "name": "changeDoctor",
      "inputs": [
        {
          "name": "newDoctor",
          "type": "address",
          "internalType": "address"
        }
      ],
      "outputs": [],
      "stateMutability": "nonpayable"
    },
    {
      "type": "function",
      "name": "getApproved",
      "inputs": [
        {
          "name": "tokenId",
          "type": "uint256",
          "internalType": "uint256"
        }
      ],
      "outputs": [
        {
          "name": "",
          "type": "address",
          "internalType": "address"
        }
      ],
      "stateMutability": "view"
    },
    {
      "type": "function",
      "name": "getDataItemForToken",
      "inputs": [
        {
          "name": "tokenId",
          "type": "uint256",
          "internalType": "uint256"
        }
      ],
      "outputs": [
        {
          "name": "",
          "type": "tuple",
          "internalType": "struct DataToken.DataItem",
          "components": [
            {
              "name": "dataTokenId",
              "type": "uint256",
              "internalType": "uint256"
            },
            {
              "name": "dataIpfsURL",
              "type": "string",
              "internalType": "string"
            }
          ]
        }
      ],
      "stateMutability": "view"
    },
    {
      "type": "function",
      "name": "getDoctor",
      "inputs": [],
      "outputs": [
        {
          "name": "",
          "type": "address",
          "internalType": "address"
        }
      ],
      "stateMutability": "view"
    },
    {
      "type": "function",
      "name": "isApprovedForAll",
      "inputs": [
        {
          "name": "owner",
          "type": "address",
          "internalType": "address"
        },
        {
          "name": "operator",
          "type": "address",
          "internalType": "address"
        }
      ],
      "outputs": [
        {
          "name": "",
          "type": "bool",
          "internalType": "bool"
        }
      ],
      "stateMutability": "view"
    },
    {
      "type": "function",
      "name": "mintDataToken",
      "inputs": [
        {
          "name": "ipfsDataURL",
          "type": "string",
          "internalType": "string"
        }
      ],
      "outputs": [
        {
          "name": "",
          "type": "uint256",
          "internalType": "uint256"
        }
      ],
      "stateMutability": "nonpayable"
    },
    {
      "type": "function",
      "name": "name",
      "inputs": [],
      "outputs": [
        {
          "name": "",
          "type": "string",
          "internalType": "string"
        }
      ],
      "stateMutability": "view"
    },
    {
      "type": "function",
      "name": "numberOfTokens",
      "inputs": [],
      "outputs": [
        {
          "name": "",
          "type": "uint256",
          "internalType": "uint256"
        }
      ],
      "stateMutability": "view"
    },
    {
      "type": "function",
      "name": "owner",
      "inputs": [],
      "outputs": [
        {
          "name": "",
          "type": "address",
          "internalType": "address"
        }
      ],
      "stateMutability": "view"
    },
    {
      "type": "function",
      "name": "ownerOf",
      "inputs": [
        {
          "name": "tokenId",
          "type": "uint256",
          "internalType": "uint256"
        }
      ],
      "outputs": [
        {
          "name": "",
          "type": "address",
          "internalType": "address"
        }
      ],
      "stateMutability": "view"
    },
    {
      "type": "function",
      "name": "renounceOwnership",
      "inputs": [],
      "outputs": [],
      "stateMutability": "nonpayable"
    },
    {
      "type": "function",
      "name": "safeTransferFrom",
      "inputs": [
        {
          "name": "from",
          "type": "address",
          "internalType": "address"
        },
        {
          "name": "to",
          "type": "address",
          "internalType": "address"
        },
        {
          "name": "tokenId",
          "type": "uint256",
          "internalType": "uint256"
        }
      ],
      "outputs": [],
      "stateMutability": "nonpayable"
    },
    {
      "type": "function",
      "name": "safeTransferFrom",
      "inputs": [
        {
          "name": "from",
          "type": "address",
          "internalType": "address"
        },
        {
          "name": "to",
          "type": "address",
          "internalType": "address"
        },
        {
          "name": "tokenId",
          "type": "uint256",
          "internalType": "uint256"
        },
        {
          "name": "data",
          "type": "bytes",
          "internalType": "bytes"
        }
      ],
      "outputs": [],
      "stateMutability": "nonpayable"
    },
    {
      "type": "function",
      "name": "setApprovalForAll",
      "inputs": [
        {
          "name": "operator",
          "type": "address",
          "internalType": "address"
        },
        {
          "name": "approved",
          "type": "bool",
          "internalType": "bool"
        }
      ],
      "outputs": [],
      "stateMutability": "nonpayable"
    },
    {
      "type": "function",
      "name": "supportsInterface",
      "inputs": [
        {
          "name": "interfaceId",
          "type": "bytes4",
          "internalType": "bytes4"
        }
      ],
      "outputs": [
        {
          "name": "",
          "type": "bool",
          "internalType": "bool"
        }
      ],
      "stateMutability": "view"
    },
    {
      "type": "function",
      "name": "symbol",
      "inputs": [],
      "outputs": [
        {
          "name": "",
          "type": "string",
          "internalType": "string"
        }
      ],
      "stateMutability": "view"
    },
    {
      "type": "function",
      "name": "tokenURI",
      "inputs": [
        {
          "name": "tokenId",
          "type": "uint256",
          "internalType": "uint256"
        }
      ],
      "outputs": [
        {
          "name": "",
          "type": "string",
          "internalType": "string"
        }
      ],
      "stateMutability": "view"
    },
    {
      "type": "function",
      "name": "transferFrom",
      "inputs": [
        {
          "name": "from",
          "type": "address",
          "internalType": "address"
        },
        {
          "name": "to",
          "type": "address",
          "internalType": "address"
        },
        {
          "name": "tokenId",
          "type": "uint256",
          "internalType": "uint256"
        }
      ],
      "outputs": [],
      "stateMutability": "nonpayable"
    },
    {
      "type": "function",
      "name": "transferOwnership",
      "inputs": [
        {
          "name": "newOwner",
          "type": "address",
          "internalType": "address"
        }
      ],
      "outputs": [],
      "stateMutability": "nonpayable"
    },
    {
      "type": "function",
      "name": "transferTokenOwnership",
      "inputs": [
        {
          "name": "to",
          "type": "address",
          "internalType": "address"
        },
        {
          "name": "tokenIdArray",
          "type": "uint256[]",
          "internalType": "uint256[]"
        }
      ],
      "outputs": [],
      "stateMutability": "nonpayable"
    },
    {
      "type": "event",
      "name": "Approval",
      "inputs": [
        {
          "name": "owner",
          "type": "address",
          "indexed": true,
          "internalType": "address"
        },
        {
          "name": "approved",
          "type": "address",
          "indexed": true,
          "internalType": "address"
        },
        {
          "name": "tokenId",
          "type": "uint256",
          "indexed": true,
          "internalType": "uint256"
        }
      ],
      "anonymous": false
    },
    {
      "type": "event",
      "name": "ApprovalForAll",
      "inputs": [
        {
          "name": "owner",
          "type": "address",
          "indexed": true,
          "internalType": "address"
        },
        {
          "name": "operator",
          "type": "address",
          "indexed": true,
          "internalType": "address"
        },
        {
          "name": "approved",
          "type": "bool",
          "indexed": false,
          "internalType": "bool"
        }
      ],
      "anonymous": false
    },
    {
      "type": "event",
      "name": "ContractOwnershipTransfered",
      "inputs": [
        {
          "name": "success",
          "type": "bool",
          "indexed": false,
          "internalType": "bool"
        }
      ],
      "anonymous": false
    },
    {
      "type": "event",
      "name": "DataSaved",
      "inputs": [
        {
          "name": "success",
          "type": "bool",
          "indexed": false,
          "internalType": "bool"
        }
      ],
      "anonymous": false
    },
    {
      "type": "event",
      "name": "DoctorChanged",
      "inputs": [
        {
          "name": "success",
          "type": "bool",
          "indexed": false,
          "internalType": "bool"
        }
      ],
      "anonymous": false
    },
    {
      "type": "event",
      "name": "Minted",
      "inputs": [
        {
          "name": "minter",
          "type": "address",
          "indexed": true,
          "internalType": "address"
        },
        {
          "name": "nftId",
          "type": "uint256",
          "indexed": false,
          "internalType": "uint256"
        }
      ],
      "anonymous": false
    },
    {
      "type": "event",
      "name": "OwnershipTransferred",
      "inputs": [
        {
          "name": "previousOwner",
          "type": "address",
          "indexed": true,
          "internalType": "address"
        },
        {
          "name": "newOwner",
          "type": "address",
          "indexed": true,
          "internalType": "address"
        }
      ],
      "anonymous": false
    },
    {
      "type": "event",
      "name": "TokenOwnershipTransfered",
      "inputs": [
        {
          "name": "success",
          "type": "bool",
          "indexed": false,
          "internalType": "bool"
        }
      ],
      "anonymous": false
    },
    {
      "type": "event",
      "name": "Transfer",
      "inputs": [
        {
          "name": "from",
          "type": "address",
          "indexed": true,
          "internalType": "address"
        },
        {
          "name": "to",
          "type": "address",
          "indexed": true,
          "internalType": "address"
        },
        {
          "name": "tokenId",
          "type": "uint256",
          "indexed": true,
          "internalType": "uint256"
        }
      ],
      "anonymous": false
    }
  ],
  "bytecode": {
    "object": "0x608060405234801561001057600080fd5b506040516121bd3803806121bd83398101604081905261002f91610126565b604051806040016040528060098152602001682230ba30aa37b5b2b760b91b8152506040518060400160405280600381526020016244544b60e81b815250816000908161007c91906101f7565b50600161008982826101f7565b5050506100a261009d6100d060201b60201c565b6100d4565b6100ab336100d4565b600980546001600160a01b0319166001600160a01b03929092169190911790556102b6565b3390565b600780546001600160a01b038381166001600160a01b0319831681179093556040519116919082907f8be0079c531659141344cd1fd0a4f28419497f9722a3daafe3b4186f6b6457e090600090a35050565b60006020828403121561013857600080fd5b81516001600160a01b038116811461014f57600080fd5b9392505050565b634e487b7160e01b600052604160045260246000fd5b600181811c9082168061018057607f821691505b6020821081036101a057634e487b7160e01b600052602260045260246000fd5b50919050565b601f8211156101f2576000816000526020600020601f850160051c810160208610156101cf5750805b601f850160051c820191505b818110156101ee578281556001016101db565b5050505b505050565b81516001600160401b0381111561021057610210610156565b6102248161021e845461016c565b846101a6565b602080601f83116001811461025957600084156102415750858301515b600019600386901b1c1916600185901b1785556101ee565b600085815260208120601f198616915b8281101561028857888601518255948401946001909101908401610269565b50858210156102a65787850151600019600388901b60f8161c191681555b5050505050600190811b01905550565b611ef8806102c56000396000f3fe608060405234801561001057600080fd5b50600436106101425760003560e01c80636352211e116100b8578063a22cb4651161007c578063a22cb465146102a0578063b88d4fde146102b3578063c87b56dd146102c6578063e985e9c5146102d9578063f2fde38b146102ec578063f9f16ef2146102ff57600080fd5b80636352211e1461025957806370a082311461026c578063715018a61461027f5780638da5cb5b1461028757806395d89b411461029857600080fd5b8063095ea7b31161010a578063095ea7b3146101e55780631e0a1938146101f857806323b872dd146102185780633aaa59201461022b5780633adb725f1461023357806342842e0e1461024657600080fd5b8063011ff9781461014757806301ffc9a71461016d578063064c4c9c1461019057806306fdde03146101a5578063081812fc146101ba575b600080fd5b61015a610155366004611866565b610308565b6040519081526020015b60405180910390f35b61018061017b3660046118c5565b6103e9565b6040519015158152602001610164565b6101a361019e3660046118f9565b61043b565b005b6101ad6104b5565b6040516101649190611a02565b6101cd6101c8366004611a15565b610547565b6040516001600160a01b039091168152602001610164565b6101a36101f3366004611a2e565b61056e565b61020b610206366004611a15565b610683565b6040516101649190611a58565b6101a3610226366004611a7d565b610811565b6101cd610842565b6101a3610241366004611ab9565b61085c565b6101a3610254366004611a7d565b6108b7565b6101cd610267366004611a15565b6108d2565b61015a61027a366004611ab9565b610932565b6101a36109b8565b6007546001600160a01b03166101cd565b6101ad6109cc565b6101a36102ae366004611ad4565b6109db565b6101a36102c1366004611b10565b6109ea565b6101ad6102d4366004611a15565b610a22565b6101806102e7366004611b8c565b610b83565b6101a36102fa366004611ab9565b610bb1565b61015a60085481565b6000610312610bf3565b60008251116103735760405162461bcd60e51b815260206004820152602260248201527f6d697373696e6720495046532075726c20666f72207468652064617461206974604482015261656d60f01b60648201526084015b60405180910390fd5b6001600860008282546103869190611bd5565b90915550506008546103983382610c4d565b6103a28184610c67565b60405181815233907f30385c845b448a36257a6a1716e6ad2e1bc2cbe333cde1e69fe849ad6511adfe9060200160405180910390a26103e18184610ceb565b90505b919050565b60006001600160e01b031982166380ac58cd60e01b148061041a57506001600160e01b03198216635b5e139f60e01b145b8061043557506301ffc9a760e01b6001600160e01b03198316145b92915050565b610443610bf3565b60005b815181101561047b57610473338484848151811061046657610466611be8565b60200260200101516108b7565b600101610446565b50604051600181527f59e1412b37af81c5c3858c3433d1f05314ac90725ebc8b5ea2ae9101270cfdf3906020015b60405180910390a15050565b6060600080546104c490611bfe565b80601f01602080910402602001604051908101604052809291908181526020018280546104f090611bfe565b801561053d5780601f106105125761010080835404028352916020019161053d565b820191906000526020600020905b81548152906001019060200180831161052057829003601f168201915b5050505050905090565b600061055282610da9565b506000908152600460205260409020546001600160a01b031690565b6000610579826108d2565b9050806001600160a01b0316836001600160a01b0316036105e65760405162461bcd60e51b815260206004820152602160248201527f4552433732313a20617070726f76616c20746f2063757272656e74206f776e656044820152603960f91b606482015260840161036a565b336001600160a01b038216148061060257506106028133610b83565b6106745760405162461bcd60e51b815260206004820152603d60248201527f4552433732313a20617070726f76652063616c6c6572206973206e6f7420746f60448201527f6b656e206f776e6572206f7220617070726f76656420666f7220616c6c000000606482015260840161036a565b61067e8383610dfc565b505050565b6040805180820190915260008152606060208201526106a0610bf3565b6106a982610e6a565b6106f55760405162461bcd60e51b815260206004820152601f60248201527f55524920717565727920666f72206e6f6e6578697374656e7420746f6b656e00604482015260640161036a565b60005b600a5481101561080b5782600a828154811061071657610716611be8565b90600052602060002090600202016000015403610803576000600a828154811061074257610742611be8565b90600052602060002090600202019050806040518060400160405290816000820154815260200160018201805461077890611bfe565b80601f01602080910402602001604051908101604052809291908181526020018280546107a490611bfe565b80156107f15780601f106107c6576101008083540402835291602001916107f1565b820191906000526020600020905b8154815290600101906020018083116107d457829003601f168201915b50505050508152505092505050919050565b6001016106f8565b50919050565b61081b3382610e87565b6108375760405162461bcd60e51b815260040161036a90611c32565b61067e838383610ee5565b600061084c610bf3565b506009546001600160a01b031690565b610864610bf3565b600980546001600160a01b0319166001600160a01b038316179055604051600181527f7c23bab3b34d1fb709f1c79112a4c71361c411e0008c57b48a0bcba1de5e6f46906020015b60405180910390a150565b61067e838383604051806020016040528060008152506109ea565b6000818152600260205260408120546001600160a01b0316806103e15760405162461bcd60e51b8152602060048201526018602482015277115490cdcc8c4e881a5b9d985b1a59081d1bdad95b88125160421b604482015260640161036a565b60006001600160a01b03821661099c5760405162461bcd60e51b815260206004820152602960248201527f4552433732313a2061646472657373207a65726f206973206e6f7420612076616044820152683634b21037bbb732b960b91b606482015260840161036a565b506001600160a01b031660009081526003602052604090205490565b6109c0610bf3565b6109ca6000611056565b565b6060600180546104c490611bfe565b6109e63383836110a8565b5050565b6109f43383610e87565b610a105760405162461bcd60e51b815260040161036a90611c32565b610a1c84848484611176565b50505050565b6060610a2d82610e6a565b610a795760405162461bcd60e51b815260206004820152601f60248201527f55524920717565727920666f72206e6f6e6578697374656e7420746f6b656e00604482015260640161036a565b6000610a8d6007546001600160a01b031690565b90506000610a9a846108d2565b9050336001600160a01b0383161480610abd57506009546001600160a01b031633145b80610ad05750336001600160a01b038216145b610b725760405162461bcd60e51b815260206004820152606160248201527f4f6e6c7920746865206f776e6572206f6620646174612028746865207061746960448201527f656e742f736f6d656f6e652077686f20626f7567687420697429206f7220746860648201527f6520646f63746f72206f662070617469656e742063616e2076696577206461746084820152606160f81b60a482015260c40161036a565b610b7b846111a9565b949350505050565b6001600160a01b03918216600090815260056020908152604080832093909416825291909152205460ff1690565b610bb9610bf3565b610bc281611056565b604051600181527fd343d0dee30ef8ca0d7672d51449779c672b1c67a6c496870ff741efe62ce6ab906020016108ac565b6007546001600160a01b031633146109ca5760405162461bcd60e51b815260206004820181905260248201527f4f776e61626c653a2063616c6c6572206973206e6f7420746865206f776e6572604482015260640161036a565b6109e68282604051806020016040528060008152506112b1565b610c7082610e6a565b610cd35760405162461bcd60e51b815260206004820152602e60248201527f45524337323155524953746f726167653a2055524920736574206f66206e6f6e60448201526d32bc34b9ba32b73a103a37b5b2b760911b606482015260840161036a565b600082815260066020526040902061067e8282611ccf565b610cf3610bf3565b6040805180820190915282815260208101828152600a8054600181018255600091909152825160029091027fc65a7bb8d6351c1cf70c95a316cc6a92839c986682d98bc35f958f4883f9d2a88101918255915190917fc65a7bb8d6351c1cf70c95a316cc6a92839c986682d98bc35f958f4883f9d2a90190610d759082611ccf565b5050604051600181527f94664aaa7bd5908cb6951b3228ee44bafa43ac0c3faea16ad8926065c3d8d05591506020016104a9565b610db281610e6a565b610df95760405162461bcd60e51b8152602060048201526018602482015277115490cdcc8c4e881a5b9d985b1a59081d1bdad95b88125160421b604482015260640161036a565b50565b600081815260046020526040902080546001600160a01b0319166001600160a01b0384169081179091558190610e31826108d2565b6001600160a01b03167f8c5be1e5ebec7d5bd14f71427d1e84f3dd0314c0f7b2291e5b200ac8c7c3b92560405160405180910390a45050565b6000908152600260205260409020546001600160a01b0316151590565b600080610e93836108d2565b9050806001600160a01b0316846001600160a01b03161480610eba5750610eba8185610b83565b80610b7b5750836001600160a01b0316610ed384610547565b6001600160a01b031614949350505050565b826001600160a01b0316610ef8826108d2565b6001600160a01b031614610f1e5760405162461bcd60e51b815260040161036a90611d8f565b6001600160a01b038216610f805760405162461bcd60e51b8152602060048201526024808201527f4552433732313a207472616e7366657220746f20746865207a65726f206164646044820152637265737360e01b606482015260840161036a565b610f8d83838360016112e4565b826001600160a01b0316610fa0826108d2565b6001600160a01b031614610fc65760405162461bcd60e51b815260040161036a90611d8f565b600081815260046020908152604080832080546001600160a01b03199081169091556001600160a01b0387811680865260038552838620805460001901905590871680865283862080546001019055868652600290945282852080549092168417909155905184937fddf252ad1be2c89b69c2b068fc378daa952ba7f163c4a11628f55a4df523b3ef91a4505050565b600780546001600160a01b038381166001600160a01b0319831681179093556040519116919082907f8be0079c531659141344cd1fd0a4f28419497f9722a3daafe3b4186f6b6457e090600090a35050565b816001600160a01b0316836001600160a01b0316036111095760405162461bcd60e51b815260206004820152601960248201527f4552433732313a20617070726f766520746f2063616c6c657200000000000000604482015260640161036a565b6001600160a01b03838116600081815260056020908152604080832094871680845294825291829020805460ff191686151590811790915591519182527f17307eab39ab6107e8899845ad3d59bd9653f200f220920489ca2b5937696c31910160405180910390a3505050565b611181848484610ee5565b61118d8484848461136c565b610a1c5760405162461bcd60e51b815260040161036a90611dd4565b60606111b482610da9565b600082815260066020526040812080546111cd90611bfe565b80601f01602080910402602001604051908101604052809291908181526020018280546111f990611bfe565b80156112465780601f1061121b57610100808354040283529160200191611246565b820191906000526020600020905b81548152906001019060200180831161122957829003601f168201915b50505050509050600061126460408051602081019091526000815290565b90508051600003611276575092915050565b8151156112a8578082604051602001611290929190611e26565b60405160208183030381529060405292505050919050565b610b7b8461146d565b6112bb83836114e1565b6112c8600084848461136c565b61067e5760405162461bcd60e51b815260040161036a90611dd4565b6001811115610a1c576001600160a01b0384161561132a576001600160a01b03841660009081526003602052604081208054839290611324908490611e55565b90915550505b6001600160a01b03831615610a1c576001600160a01b03831660009081526003602052604081208054839290611361908490611bd5565b909155505050505050565b60006001600160a01b0384163b1561146257604051630a85bd0160e11b81526001600160a01b0385169063150b7a02906113b0903390899088908890600401611e68565b6020604051808303816000875af19250505080156113eb575060408051601f3d908101601f191682019092526113e891810190611ea5565b60015b611448573d808015611419576040519150601f19603f3d011682016040523d82523d6000602084013e61141e565b606091505b5080516000036114405760405162461bcd60e51b815260040161036a90611dd4565b805181602001fd5b6001600160e01b031916630a85bd0160e11b149050610b7b565b506001949350505050565b606061147882610da9565b600061148f60408051602081019091526000815290565b905060008151116114af57604051806020016040528060008152506114da565b806114b98461165c565b6040516020016114ca929190611e26565b6040516020818303038152906040525b9392505050565b6001600160a01b0382166115375760405162461bcd60e51b815260206004820181905260248201527f4552433732313a206d696e7420746f20746865207a65726f2061646472657373604482015260640161036a565b61154081610e6a565b1561158d5760405162461bcd60e51b815260206004820152601c60248201527f4552433732313a20746f6b656e20616c7265616479206d696e74656400000000604482015260640161036a565b61159b6000838360016112e4565b6115a481610e6a565b156115f15760405162461bcd60e51b815260206004820152601c60248201527f4552433732313a20746f6b656e20616c7265616479206d696e74656400000000604482015260640161036a565b6001600160a01b038216600081815260036020908152604080832080546001019055848352600290915280822080546001600160a01b0319168417905551839291907fddf252ad1be2c89b69c2b068fc378daa952ba7f163c4a11628f55a4df523b3ef908290a45050565b60606000611669836116ef565b600101905060008167ffffffffffffffff811115611689576116896117c7565b6040519080825280601f01601f1916602001820160405280156116b3576020820181803683370190505b5090508181016020015b600019016f181899199a1a9b1b9c1cb0b131b232b360811b600a86061a8153600a85049450846116bd57509392505050565b60008072184f03e93ff9f4daa797ed6e38ed64bf6a1f0160401b831061172e5772184f03e93ff9f4daa797ed6e38ed64bf6a1f0160401b830492506040015b6d04ee2d6d415b85acef8100000000831061175a576d04ee2d6d415b85acef8100000000830492506020015b662386f26fc10000831061177857662386f26fc10000830492506010015b6305f5e1008310611790576305f5e100830492506008015b61271083106117a457612710830492506004015b606483106117b6576064830492506002015b600a83106103e15760010192915050565b634e487b7160e01b600052604160045260246000fd5b604051601f8201601f1916810167ffffffffffffffff81118282101715611806576118066117c7565b604052919050565b600067ffffffffffffffff831115611828576118286117c7565b61183b601f8401601f19166020016117dd565b905082815283838301111561184f57600080fd5b828260208301376000602084830101529392505050565b60006020828403121561187857600080fd5b813567ffffffffffffffff81111561188f57600080fd5b8201601f810184136118a057600080fd5b610b7b8482356020840161180e565b6001600160e01b031981168114610df957600080fd5b6000602082840312156118d757600080fd5b81356114da816118af565b80356001600160a01b03811681146103e457600080fd5b6000806040838503121561190c57600080fd5b611915836118e2565b915060208084013567ffffffffffffffff8082111561193357600080fd5b818601915086601f83011261194757600080fd5b813581811115611959576119596117c7565b8060051b915061196a8483016117dd565b818152918301840191848101908984111561198457600080fd5b938501935b838510156119a257843582529385019390850190611989565b8096505050505050509250929050565b60005b838110156119cd5781810151838201526020016119b5565b50506000910152565b600081518084526119ee8160208601602086016119b2565b601f01601f19169290920160200192915050565b6020815260006114da60208301846119d6565b600060208284031215611a2757600080fd5b5035919050565b60008060408385031215611a4157600080fd5b611a4a836118e2565b946020939093013593505050565b602081528151602082015260006020830151604080840152610b7b60608401826119d6565b600080600060608486031215611a9257600080fd5b611a9b846118e2565b9250611aa9602085016118e2565b9150604084013590509250925092565b600060208284031215611acb57600080fd5b6114da826118e2565b60008060408385031215611ae757600080fd5b611af0836118e2565b915060208301358015158114611b0557600080fd5b809150509250929050565b60008060008060808587031215611b2657600080fd5b611b2f856118e2565b9350611b3d602086016118e2565b925060408501359150606085013567ffffffffffffffff811115611b6057600080fd5b8501601f81018713611b7157600080fd5b611b808782356020840161180e565b91505092959194509250565b60008060408385031215611b9f57600080fd5b611ba8836118e2565b9150611bb6602084016118e2565b90509250929050565b634e487b7160e01b600052601160045260246000fd5b8082018082111561043557610435611bbf565b634e487b7160e01b600052603260045260246000fd5b600181811c90821680611c1257607f821691505b60208210810361080b57634e487b7160e01b600052602260045260246000fd5b6020808252602d908201527f4552433732313a2063616c6c6572206973206e6f7420746f6b656e206f776e6560408201526c1c881bdc88185c1c1c9bdd9959609a1b606082015260800190565b601f82111561067e576000816000526020600020601f850160051c81016020861015611ca85750805b601f850160051c820191505b81811015611cc757828155600101611cb4565b505050505050565b815167ffffffffffffffff811115611ce957611ce96117c7565b611cfd81611cf78454611bfe565b84611c7f565b602080601f831160018114611d325760008415611d1a5750858301515b600019600386901b1c1916600185901b178555611cc7565b600085815260208120601f198616915b82811015611d6157888601518255948401946001909101908401611d42565b5085821015611d7f5787850151600019600388901b60f8161c191681555b5050505050600190811b01905550565b60208082526025908201527f4552433732313a207472616e736665722066726f6d20696e636f72726563742060408201526437bbb732b960d91b606082015260800190565b60208082526032908201527f4552433732313a207472616e7366657220746f206e6f6e20455243373231526560408201527131b2b4bb32b91034b6b83632b6b2b73a32b960711b606082015260800190565b60008351611e388184602088016119b2565b835190830190611e4c8183602088016119b2565b01949350505050565b8181038181111561043557610435611bbf565b6001600160a01b0385811682528416602082015260408101839052608060608201819052600090611e9b908301846119d6565b9695505050505050565b600060208284031215611eb757600080fd5b81516114da816118af56fea264697066735822122079cac09f528b5a55a98d846cf627bb1a7c51f36014c575ee0ba2ca81c341a5f164736f6c63430008190033",
    "linkReferences": {}
  },
  "methodIdentifiers": {
    "approve(address,uint256)": "095ea7b3",
    "balanceOf(address)": "70a08231",
    "changeDoctor(address)": "3adb725f",
    "getApproved(uint256)": "081812fc",
    "getDataItemForToken(uint256)": "1e0a1938",
    "getDoctor()": "3aaa5920",
    "isApprovedForAll(address,address)": "e985e9c5",
    "mintDataToken(string)": "011ff978",
    "name()": "06fdde03",
    "numberOfTokens()": "f9f16ef2",
    "owner()": "8da5cb5b",
    "ownerOf(uint256)": "6352211e",
    "renounceOwnership()": "715018a6",
    "safeTransferFrom(address,address,uint256)": "42842e0e",
    "safeTransferFrom(address,address,uint256,bytes)": "b88d4fde",
    "setApprovalForAll(address,bool)": "a22cb465",
    "supportsInterface(bytes4)": "01ffc9a7",
    "symbol()": "95d89b41",
    "tokenURI(uint256)": "c87b56dd",
    "transferFrom(address,address,uint256)": "23b872dd",
    "transferOwnership(address)": "f2fde38b",
    "transferTokenOwnership(address,uint256[])": "064c4c9c"
  },
  "id": 0
}