{
  "abi": [
    {
      "type": "constructor",
      "inputs": [],
      "stateMutability": "nonpayable"
    },
    {
      "type": "function",
      "name": "checkIsAdminLogged",
      "inputs": [
        {
          "name": "_address",
          "type": "address",
          "internalType": "address"
        }
      ],
      "outputs": [
        {
          "name": "",
          "type": "bool",
          "internalType": "bool"
        },
        {
          "name": "",
          "type": "string",
          "internalType": "string"
        }
      ],
      "stateMutability": "view"
    },
    {
      "type": "function",
      "name": "checkIsUserLogged",
      "inputs": [
        {
          "name": "_address",
          "type": "address",
          "internalType": "address"
        }
      ],
      "outputs": [
        {
          "name": "",
          "type": "bool",
          "internalType": "bool"
        },
        {
          "name": "",
          "type": "string",
          "internalType": "string"
        }
      ],
      "stateMutability": "view"
    },
    {
      "type": "function",
      "name": "getAdminBalance",
      "inputs": [
        {
          "name": "_address",
          "type": "address",
          "internalType": "address"
        }
      ],
      "outputs": [
        {
          "name": "",
          "type": "uint256",
          "internalType": "uint256"
        }
      ],
      "stateMutability": "view"
    },
    {
      "type": "function",
      "name": "loginAdmin",
      "inputs": [
        {
          "name": "_address",
          "type": "address",
          "internalType": "address"
        },
        {
          "name": "_password",
          "type": "string",
          "internalType": "string"
        }
      ],
      "outputs": [
        {
          "name": "",
          "type": "bool",
          "internalType": "bool"
        }
      ],
      "stateMutability": "nonpayable"
    },
    {
      "type": "function",
      "name": "loginUser",
      "inputs": [
        {
          "name": "_address",
          "type": "address",
          "internalType": "address"
        },
        {
          "name": "_password",
          "type": "string",
          "internalType": "string"
        }
      ],
      "outputs": [
        {
          "name": "",
          "type": "bool",
          "internalType": "bool"
        }
      ],
      "stateMutability": "nonpayable"
    },
    {
      "type": "function",
      "name": "logoutAdmin",
      "inputs": [
        {
          "name": "_address",
          "type": "address",
          "internalType": "address"
        }
      ],
      "outputs": [],
      "stateMutability": "nonpayable"
    },
    {
      "type": "function",
      "name": "logoutUser",
      "inputs": [
        {
          "name": "_address",
          "type": "address",
          "internalType": "address"
        }
      ],
      "outputs": [],
      "stateMutability": "nonpayable"
    },
    {
      "type": "function",
      "name": "registerAdmin",
      "inputs": [
        {
          "name": "_address",
          "type": "address",
          "internalType": "address"
        },
        {
          "name": "_name",
          "type": "string",
          "internalType": "string"
        },
        {
          "name": "_password",
          "type": "string",
          "internalType": "string"
        },
        {
          "name": "_ipfsImageHash",
          "type": "string",
          "internalType": "string"
        }
      ],
      "outputs": [
        {
          "name": "",
          "type": "bool",
          "internalType": "bool"
        }
      ],
      "stateMutability": "nonpayable"
    },
    {
      "type": "function",
      "name": "registerUser",
      "inputs": [
        {
          "name": "_address",
          "type": "address",
          "internalType": "address"
        },
        {
          "name": "_name",
          "type": "string",
          "internalType": "string"
        },
        {
          "name": "_password",
          "type": "string",
          "internalType": "string"
        },
        {
          "name": "_cnic",
          "type": "string",
          "internalType": "string"
        },
        {
          "name": "_ipfsImageHash",
          "type": "string",
          "internalType": "string"
        }
      ],
      "outputs": [
        {
          "name": "",
          "type": "bool",
          "internalType": "bool"
        }
      ],
      "stateMutability": "nonpayable"
    }
  ],
  "bytecode": {
    "object": "0x608060405234801561001057600080fd5b50600280546001600160a01b03191673f39fd6e51aad88f6f4ce6ab8827279cfffb92266179055610ecb806100466000396000f3fe608060405234801561001057600080fd5b50600436106100935760003560e01c8063434917af11610066578063434917af14610269578063645cf80f1461031d57806398711c1714610343578063999eab2b146103695780639f60fabc146105ac57610093565b806303bdb46b1461009857806309df506014610160578063128c9f0114610188578063297f7b39146101c0575b600080fd5b61014c600480360360408110156100ae57600080fd5b6001600160a01b038235169190810190604081016020820135600160201b8111156100d857600080fd5b8201836020820111156100ea57600080fd5b803590602001918460018302840111600160201b8311171561010b57600080fd5b91908080601f01602080910402602001604051908101604052809392919081815260200183838082843760009201919091525092955061076a945050505050565b604080519115158252519081900360200190f35b6101866004803603602081101561017657600080fd5b50356001600160a01b03166108bb565b005b6101ae6004803603602081101561019e57600080fd5b50356001600160a01b03166108df565b60408051918252519081900360200190f35b6101e6600480360360208110156101d657600080fd5b50356001600160a01b03166108fe565b604051808315151515815260200180602001828103825283818151815260200191508051906020019080838360005b8381101561022d578181015183820152602001610215565b50505050905090810190601f16801561025a5780820380516001836020036101000a031916815260200191505b50935050505060405180910390f35b61014c6004803603604081101561027f57600080fd5b6001600160a01b038235169190810190604081016020820135600160201b8111156102a957600080fd5b8201836020820111156102bb57600080fd5b803590602001918460018302840111600160201b831117156102dc57600080fd5b91908080601f0160208091040260200160405190810160405280939291908181526020018383808284376000920191909152509295506109be945050505050565b6101866004803603602081101561033357600080fd5b50356001600160a01b0316610b09565b6101e66004803603602081101561035957600080fd5b50356001600160a01b0316610b2d565b61014c600480360360a081101561037f57600080fd5b6001600160a01b038235169190810190604081016020820135600160201b8111156103a957600080fd5b8201836020820111156103bb57600080fd5b803590602001918460018302840111600160201b831117156103dc57600080fd5b91908080601f0160208091040260200160405190810160405280939291908181526020018383808284376000920191909152509295949360208101935035915050600160201b81111561042e57600080fd5b82018360208201111561044057600080fd5b803590602001918460018302840111600160201b8311171561046157600080fd5b91908080601f0160208091040260200160405190810160405280939291908181526020018383808284376000920191909152509295949360208101935035915050600160201b8111156104b357600080fd5b8201836020820111156104c557600080fd5b803590602001918460018302840111600160201b831117156104e657600080fd5b91908080601f0160208091040260200160405190810160405280939291908181526020018383808284376000920191909152509295949360208101935035915050600160201b81111561053857600080fd5b82018360208201111561054a57600080fd5b803590602001918460018302840111600160201b8311171561056b57600080fd5b91908080601f016020809104026020016040519081016040528093929190818152602001838380828437600092019190915250929550610bb4945050505050565b61014c600480360360808110156105c257600080fd5b6001600160a01b038235169190810190604081016020820135600160201b8111156105ec57600080fd5b8201836020820111156105fe57600080fd5b803590602001918460018302840111600160201b8311171561061f57600080fd5b91908080601f0160208091040260200160405190810160405280939291908181526020018383808284376000920191909152509295949360208101935035915050600160201b81111561067157600080fd5b82018360208201111561068357600080fd5b803590602001918460018302840111600160201b831117156106a457600080fd5b91908080601f0160208091040260200160405190810160405280939291908181526020018383808284376000920191909152509295949360208101935035915050600160201b8111156106f657600080fd5b82018360208201111561070857600080fd5b803590602001918460018302840111600160201b8311171561072957600080fd5b91908080601f016020809104026020016040519081016040528093929190818152602001838380828437600092019190915250929550610cec945050505050565b6000816040516020018082805190602001908083835b6020831061079f5780518252601f199092019160209182019101610780565b6001836020036101000a03801982511681845116808217855250505050505090500191505060405160208183030381529060405280519060200120600080856001600160a01b03166001600160a01b03168152602001908152602001600020600201604051602001808280546001816001161561010002031660029004801561085f5780601f1061083d57610100808354040283529182019161085f565b820191906000526020600020905b81548152906001019060200180831161084b575b50509150506040516020818303038152906040528051906020012014156108b157506001600160a01b0382166000908152602081905260409020600501805460ff19166001179081905560ff166108b5565b5060005b92915050565b6001600160a01b03166000908152602081905260409020600501805460ff19169055565b6001600160a01b03908116600090815260016020526040902054163190565b6001600160a01b0381166000908152602081815260408083206005810154600490910180548351601f6002600019600185161561010002019093169290920491820186900486028101860190945280845260609460ff9093169391928391908301828280156109ae5780601f10610983576101008083540402835291602001916109ae565b820191906000526020600020905b81548152906001019060200180831161099157829003601f168201915b5050505050905091509150915091565b6000816040516020018082805190602001908083835b602083106109f35780518252601f1990920191602091820191016109d4565b6001836020036101000a0380198251168184511680821785525050505050509050019150506040516020818303038152906040528051906020012060016000856001600160a01b03166001600160a01b031681526020019081526020016000206002016040516020018082805460018160011615610100020316600290048015610ab45780601f10610a92576101008083540402835291820191610ab4565b820191906000526020600020905b815481529060010190602001808311610aa0575b50509150506040516020818303038152906040528051906020012014156108b157506001600160a01b0382166000908152600160208190526040909120600401805460ff19169091179081905560ff166108b5565b6001600160a01b03166000908152600160205260409020600401805460ff19169055565b6001600160a01b03811660009081526001602081815260408084206004810154600390910180548351600261010097831615979097026000190190911695909504601f810185900485028601850190935282855260609460ff90921693909283918301828280156109ae5780601f10610983576101008083540402835291602001916109ae565b6002546000906001600160a01b0316331415610bcf57600080fd5b6001600160a01b0386811660009081526020819052604090205416331415610bf657600080fd5b6001600160a01b03861660008181526020818152604090912080546001600160a01b03191690921782558651610c329260010191880190610dfb565b506001600160a01b0386166000908152602081815260409091208551610c6092600290920191870190610dfb565b506001600160a01b0386166000908152602081815260409091208451610c8e92600390920191860190610dfb565b506001600160a01b0386166000908152602081815260409091208351610cbc92600490920191850190610dfb565b50506001600160a01b0385166000908152602081905260409020600501805460ff19169055600195945050505050565b6002546000906001600160a01b03163314610d0657600080fd5b6001600160a01b0385811660009081526001602052604090205416331415610d2d57600080fd5b6001600160a01b038516600081815260016020818152604090922080546001600160a01b03191690931783558651610d6b9390910191870190610dfb565b506001600160a01b03851660009081526001602090815260409091208451610d9b92600290920191860190610dfb565b506001600160a01b03851660009081526001602090815260409091208351610dcb92600390920191850190610dfb565b50506001600160a01b0384166000908152600160208190526040909120600401805460ff19169055949350505050565b828054600181600116156101000203166002900490600052602060002090601f016020900481019282601f10610e3c57805160ff1916838001178555610e69565b82800160010185558215610e69579182015b82811115610e69578251825591602001919060010190610e4e565b50610e75929150610e79565b5090565b610e9391905b80821115610e755760008155600101610e7f565b9056fea265627a7a7231582082134e4d805217facad110dcd2e3c41da55cbfdfdc1ddfa84dd75fb488b170dd64736f6c63430005110032",
    "linkReferences": {}
  },
  "methodIdentifiers": {
    "checkIsAdminLogged(address)": "98711c17",
    "checkIsUserLogged(address)": "297f7b39",
    "getAdminBalance(address)": "128c9f01",
    "loginAdmin(address,string)": "434917af",
    "loginUser(address,string)": "03bdb46b",
    "logoutAdmin(address)": "645cf80f",
    "logoutUser(address)": "09df5060",
    "registerAdmin(address,string,string,string)": "9f60fabc",
    "registerUser(address,string,string,string,string)": "999eab2b"
  },
  "id": 0
}